{"abi":[{"type":"constructor","inputs":[{"name":"_axiomV2QueryAddress","type":"address","internalType":"address"},{"name":"_callbackSourceChainId","type":"uint64","internalType":"uint64"},{"name":"_axiomCallbackQuerySchema","type":"bytes32","internalType":"bytes32"}],"stateMutability":"nonpayable"},{"type":"function","name":"AGE_THRESHOLD","inputs":[],"outputs":[{"name":"","type":"uint32","internalType":"uint32"}],"stateMutability":"view"},{"type":"function","name":"axiomCallbackQuerySchema","inputs":[],"outputs":[{"name":"","type":"bytes32","internalType":"bytes32"}],"stateMutability":"view"},{"type":"function","name":"axiomV2Callback","inputs":[{"name":"sourceChainId","type":"uint64","internalType":"uint64"},{"name":"caller","type":"address","internalType":"address"},{"name":"querySchema","type":"bytes32","internalType":"bytes32"},{"name":"queryId","type":"uint256","internalType":"uint256"},{"name":"axiomResults","type":"bytes32[]","internalType":"bytes32[]"},{"name":"extraData","type":"bytes","internalType":"bytes"}],"outputs":[],"stateMutability":"nonpayable"},{"type":"function","name":"axiomV2OffchainCallback","inputs":[{"name":"sourceChainId","type":"uint64","internalType":"uint64"},{"name":"caller","type":"address","internalType":"address"},{"name":"querySchema","type":"bytes32","internalType":"bytes32"},{"name":"queryId","type":"uint256","internalType":"uint256"},{"name":"axiomResults","type":"bytes32[]","internalType":"bytes32[]"},{"name":"extraData","type":"bytes","internalType":"bytes"}],"outputs":[],"stateMutability":"nonpayable"},{"type":"function","name":"axiomV2QueryAddress","inputs":[],"outputs":[{"name":"","type":"address","internalType":"address"}],"stateMutability":"view"},{"type":"function","name":"callbackSourceChainId","inputs":[],"outputs":[{"name":"","type":"uint64","internalType":"uint64"}],"stateMutability":"view"},{"type":"function","name":"hasClaimed","inputs":[{"name":"","type":"address","internalType":"address"}],"outputs":[{"name":"","type":"bool","internalType":"bool"}],"stateMutability":"view"},{"type":"function","name":"owner","inputs":[],"outputs":[{"name":"","type":"address","internalType":"address"}],"stateMutability":"view"},{"type":"function","name":"querySubmitted","inputs":[{"name":"","type":"address","internalType":"address"}],"outputs":[{"name":"","type":"bool","internalType":"bool"}],"stateMutability":"view"},{"type":"function","name":"renounceOwnership","inputs":[],"outputs":[],"stateMutability":"nonpayable"},{"type":"function","name":"token","inputs":[],"outputs":[{"name":"","type":"address","internalType":"contract IERC20"}],"stateMutability":"view"},{"type":"function","name":"transferOwnership","inputs":[{"name":"newOwner","type":"address","internalType":"address"}],"outputs":[],"stateMutability":"nonpayable"},{"type":"function","name":"updateAirdropToken","inputs":[{"name":"_token","type":"address","internalType":"address"}],"outputs":[],"stateMutability":"nonpayable"},{"type":"function","name":"updateCallbackQuerySchema","inputs":[{"name":"_axiomCallbackQuerySchema","type":"bytes32","internalType":"bytes32"}],"outputs":[],"stateMutability":"nonpayable"},{"type":"event","name":"AirdropTokenAddressUpdated","inputs":[{"name":"token","type":"address","indexed":false,"internalType":"address"}],"anonymous":false},{"type":"event","name":"AxiomCallbackQuerySchemaUpdated","inputs":[{"name":"axiomCallbackQuerySchema","type":"bytes32","indexed":false,"internalType":"bytes32"}],"anonymous":false},{"type":"event","name":"AxiomV2Call","inputs":[{"name":"sourceChainId","type":"uint64","indexed":true,"internalType":"uint64"},{"name":"caller","type":"address","indexed":false,"internalType":"address"},{"name":"querySchema","type":"bytes32","indexed":true,"internalType":"bytes32"},{"name":"queryId","type":"uint256","indexed":true,"internalType":"uint256"}],"anonymous":false},{"type":"event","name":"AxiomV2OffchainCall","inputs":[{"name":"sourceChainId","type":"uint64","indexed":true,"internalType":"uint64"},{"name":"caller","type":"address","indexed":false,"internalType":"address"},{"name":"querySchema","type":"bytes32","indexed":true,"internalType":"bytes32"},{"name":"queryId","type":"uint256","indexed":true,"internalType":"uint256"}],"anonymous":false},{"type":"event","name":"ClaimAirdrop","inputs":[{"name":"user","type":"address","indexed":true,"internalType":"address"},{"name":"queryId","type":"uint256","indexed":true,"internalType":"uint256"},{"name":"numTokens","type":"uint256","indexed":false,"internalType":"uint256"},{"name":"axiomResults","type":"bytes32[]","indexed":false,"internalType":"bytes32[]"}],"anonymous":false},{"type":"event","name":"ClaimAirdropError","inputs":[{"name":"user","type":"address","indexed":true,"internalType":"address"},{"name":"error","type":"string","indexed":false,"internalType":"string"}],"anonymous":false},{"type":"event","name":"OwnershipTransferred","inputs":[{"name":"previousOwner","type":"address","indexed":true,"internalType":"address"},{"name":"newOwner","type":"address","indexed":true,"internalType":"address"}],"anonymous":false},{"type":"error","name":"AxiomV2QueryAddressIsZero","inputs":[]},{"type":"error","name":"CallerMustBeAxiomV2Query","inputs":[]}],"bytecode":{"object":"0x60a060405234801561001057600080fd5b50604051610d14380380610d1483398101604081905261002f916100f0565b826001600160a01b0381166100575760405163d86f565560e01b815260040160405180910390fd5b6001600160a01b031660805261006c336100a0565b600080546001600160401b03909316600160a01b02600160a01b600160e01b0319909316929092179091556001555061014b565b600080546001600160a01b038381166001600160a01b0319831681178455604051919092169283917f8be0079c531659141344cd1fd0a4f28419497f9722a3daafe3b4186f6b6457e09190a35050565b60008060006060848603121561010557600080fd5b83516001600160a01b038116811461011c57600080fd5b60208501519093506001600160401b038116811461013957600080fd5b80925050604084015190509250925092565b608051610ba06101746000396000818161015f015281816102e101526103f60152610ba06000f3fe608060405234801561001057600080fd5b50600436106100ea5760003560e01c80638da5cb5b1161008c578063cd1cd72511610066578063cd1cd7251461022e578063dc5cd53c14610245578063f2fde38b14610258578063fc0c546a1461026b57600080fd5b80638da5cb5b146101e7578063a34c1eb4146101f8578063ab72fc091461020b57600080fd5b80632a75d3be116100c85780632a75d3be1461015a578063715018a61461019957806373b2e80e146101a15780638193399c146101d457600080fd5b8063034606e0146100ef5780630a50ec5c14610104578063177276101461013d575b600080fd5b6101026100fd366004610940565b61027e565b005b60005461011f90600160a01b900467ffffffffffffffff1681565b60405167ffffffffffffffff90911681526020015b60405180910390f35b61014560fa81565b60405163ffffffff9091168152602001610134565b6101817f000000000000000000000000000000000000000000000000000000000000000081565b6040516001600160a01b039091168152602001610134565b6101026102c2565b6101c46101af366004610975565b60036020526000908152604090205460ff1681565b6040519015158152602001610134565b6101026101e23660046109e0565b6102d6565b6000546001600160a01b0316610181565b610102610206366004610975565b610395565b6101c4610219366004610975565b60026020526000908152604090205460ff1681565b61023760015481565b604051908152602001610134565b6101026102533660046109e0565b6103eb565b610102610266366004610975565b610490565b600454610181906001600160a01b031681565b61028661050e565b60018190556040518181527f215a17e0015e11cebc3087027513f0b70572c3b3341a76ef38fbcbbb8193c6ae906020015b60405180910390a150565b6102ca61050e565b6102d46000610568565b565b336001600160a01b037f0000000000000000000000000000000000000000000000000000000000000000161461031f576040516312e71c9f60e11b815260040160405180910390fd5b6040516001600160a01b03881681528590879067ffffffffffffffff8b16907fd6d9923f6afa6ae6afc97c99da22b8ccadc9beafe897857b2434da0a402da98c9060200160405180910390a461037b60018989898987876105b8565b61038b8888888888888888610699565b5050505050505050565b61039d61050e565b600480546001600160a01b0319166001600160a01b0383169081179091556040519081527f3d74e308a5601bae6228e9545413c210aad9d550ccd35b1f55805a9bd2cc6dfb906020016102b7565b336001600160a01b037f00000000000000000000000000000000000000000000000000000000000000001614610434576040516312e71c9f60e11b815260040160405180910390fd5b6040516001600160a01b03881681528590879067ffffffffffffffff8b16907fc6d3309bf887e48755c9a455e332b73641b6bf2fd018e3b608bf21676c4c0af59060200160405180910390a461037b60008989898987876105b8565b61049861050e565b6001600160a01b0381166105025760405162461bcd60e51b815260206004820152602660248201527f4f776e61626c653a206e6577206f776e657220697320746865207a65726f206160448201526564647265737360d01b60648201526084015b60405180910390fd5b61050b81610568565b50565b6000546001600160a01b031633146102d45760405162461bcd60e51b815260206004820181905260248201527f4f776e61626c653a2063616c6c6572206973206e6f7420746865206f776e657260448201526064016104f9565b600080546001600160a01b038381166001600160a01b0319831681178455604051919092169283917f8be0079c531659141344cd1fd0a4f28419497f9722a3daafe3b4186f6b6457e09190a35050565b60005467ffffffffffffffff878116600160a01b909204161461062f5760405162461bcd60e51b815260206004820152602960248201527f4175746f6e6f6d6f757341697264726f703a20736f75726365436861696e4964604482015268040dad2e6dac2e8c6d60bb1b60648201526084016104f9565b60015484146106905760405162461bcd60e51b815260206004820152602760248201527f4175746f6e6f6d6f757341697264726f703a207175657279536368656d61206d6044820152660d2e6dac2e8c6d60cb1b60648201526084016104f9565b50505050505050565b6001600160a01b03871660009081526003602052604090205460ff16156107285760405162461bcd60e51b815260206004820152603960248201527f4175746f6e6f6d6f75732041697264726f703a20557365722068617320616c7260448201527f6561647920636c61696d656420746869732061697264726f700000000000000060648201526084016104f9565b60008484600081811061073d5761073d610abf565b9050602002013560001c905060008585600181811061075e5761075e610abf565b9050602002013560001c9050886001600160a01b0316816001600160a01b0316146107e45760405162461bcd60e51b815260206004820152603060248201527f4175746f6e6f6d6f75732041697264726f703a20496e76616c696420746f206160448201526f19191c995cdcc8199bdc88195d995b9d60821b60648201526084016104f9565b436107f060fa84610ad5565b63ffffffff16111561084f5760405162461bcd60e51b815260206004820152602260248201527f4175746f6e6f6d6f75732041697264726f703a204e6f74206f6c6420656e6f756044820152610ced60f31b60648201526084016104f9565b6001600160a01b0389811660008181526003602052604090819020805460ff1916600117905560048054915163a9059cbb60e01b81529081019290925268056bc75e2d631000006024830181905292169063a9059cbb906044016020604051808303816000875af11580156108c8573d6000803e3d6000fd5b505050506040513d601f19601f820116820180604052508101906108ec9190610b07565b50878a6001600160a01b03167ff255ca8b36e5c725bc670f71948b01cfa0c198f72828712c7246825ac0e928cf838a8a60405161092b93929190610b29565b60405180910390a35050505050505050505050565b60006020828403121561095257600080fd5b5035919050565b80356001600160a01b038116811461097057600080fd5b919050565b60006020828403121561098757600080fd5b61099082610959565b9392505050565b60008083601f8401126109a957600080fd5b50813567ffffffffffffffff8111156109c157600080fd5b6020830191508360208285010111156109d957600080fd5b9250929050565b60008060008060008060008060c0898b0312156109fc57600080fd5b883567ffffffffffffffff8082168214610a1557600080fd5b819950610a2460208c01610959565b985060408b0135975060608b0135965060808b0135915080821115610a4857600080fd5b818b0191508b601f830112610a5c57600080fd5b813581811115610a6b57600080fd5b8c60208260051b8501011115610a8057600080fd5b6020830196508095505060a08b0135915080821115610a9e57600080fd5b50610aab8b828c01610997565b999c989b5096995094979396929594505050565b634e487b7160e01b600052603260045260246000fd5b63ffffffff818116838216019080821115610b0057634e487b7160e01b600052601160045260246000fd5b5092915050565b600060208284031215610b1957600080fd5b8151801515811461099057600080fd5b838152604060208201819052810182905260006001600160fb1b03831115610b5057600080fd5b8260051b808560608501379190910160600194935050505056fea2646970667358221220ef44e60f9d8a1c40558fcbef77326245ea39e6afc67472c17e7bfcf7f5b0ed8f64736f6c63430008130033","linkReferences":{}},"methodIdentifiers":{"AGE_THRESHOLD()":"17727610","axiomCallbackQuerySchema()":"cd1cd725","axiomV2Callback(uint64,address,bytes32,uint256,bytes32[],bytes)":"dc5cd53c","axiomV2OffchainCallback(uint64,address,bytes32,uint256,bytes32[],bytes)":"8193399c","axiomV2QueryAddress()":"2a75d3be","callbackSourceChainId()":"0a50ec5c","hasClaimed(address)":"73b2e80e","owner()":"8da5cb5b","querySubmitted(address)":"ab72fc09","renounceOwnership()":"715018a6","token()":"fc0c546a","transferOwnership(address)":"f2fde38b","updateAirdropToken(address)":"a34c1eb4","updateCallbackQuerySchema(bytes32)":"034606e0"},"id":44}